:400000000080002011000000D5230000D523000080B500AF024A034B1B68136002F0E4F9BC760040FA46004010B5054C237833B9044B13B10448AFF300800123237010BD48
:400040003881FF1F00000000B82F0000084B10B51BB108490848AFF300800848036803B910BD074B002BFBD0BDE81040184700BF000000003C81FF1FB82F0000C880FF1F54
:400080000000000080B58CB004AFF860B9603B601346FB80FB889B00184600F03FFE78617B69002B0ED0582000F038FEF861FB69002B03D0FB697A691A6305E0786900F0FA
:4000C000C9FE01E00023FB61FB69002B13D0FA8800230393FB690293FB6A0193BB6A00933B68B968F86800F00FF8F86900F084F80123BB6102E04FF0FF33BB61BB69184669
:400100002037BD4680BD00BF80B586B000AFF860B9607A603B60BB6A186B7B689B001A46A52102F038FFBB6A1A6B7B6803F18043013B9B0013443B613B6923F007033B6189
:4001400000237B6112E0BA687B6913441978BA6A7B69134434330A461A70BA687B6913441B78002B06D07B6901337B617B690B2BE9D900E000BFBB6A002283F83F203B6ADA
:40018000042B01D904233B62BB6A3A6ADA62BB6A3A6A9A64BB6A0022DA64BB6A0433184600F02AFDBB6A1833184600F025FDBB6ABA6A1A613B6AC3F10502BB6A9A61BB6A07
:4001C000BA6A5A62BB6A00221A65BB6A002283F854203A68F968386900F0A8FE0246BB6A1A607B6A002B02D07B6ABA6A1A6000BF1837BD4680BD00BF80B582B000AF7860A2
:4002000000F010FF3B4B1B6801333A4A13603A4B1B68002B09D1384A7B681360354B1B68012B10D100F0B2FB0DE0344B1B68002B09D1314B1B68DA6A7B68DB6A9A4202D8E4
:400240002D4A7B6813602E4B1B6801332C4A13602B4B1A687B681A647B6834331946052001F03CFC02467B685A647B685B6CDBB21946232001F004FB7B685B6CDBB2194600
:400280000B2001F0FDFA7B68DB6A01229A401D4B1B6813431B4A13607B68DA6A13469B0013449B00184A1A447B6804331946104600F0AEFC7B685B6CDBB219460C2001F004
:4002C000DFFA00F0C7FE0D4B1B68002B0ED00A4B1B68DA6A7B68DB6A9A4207D20B4B4FF080521A60BFF34F8FBFF36F8F00BF0837BD4680BD2C82FF1F5481FF1F3882FF1F9D
:400300004882FF1F3482FF1F5881FF1F04ED00E080B586B000AF7860396000237B6100F03BF9274B1B683B617B681A683B681344FB607B681A683B699A420BD97B681A6812
:40034000FB689A4211D9FA683B699A420DD901237B610AE07B681A68FB689A4203D8FA683B699A4201D901237B617B68FA681A607B69002B12D0134B1B685B6CD9B23B68E1
:400380001B0ADAB23B68DBB2262001F0E3FAFA683B69D31A0021184600F0A8FB00F00AF9B860BB68002B07D1074B4FF080521A60BFF34F8FBFF36F8F00BF1837BD4680BDA7
:4003C0003082FF1F5481FF1F04ED00E080B584B000AF78600023FB607B68002B14D000F0DBF8114B1B685B6CD9B27B681B0ADAB27B68DBB2272001F0ADFA0021786800F041
:4004000075FB00F0D7F8F860FB68002B07D1074B4FF080521A60BFF34F8FBFF36F8F00BF1037BD4680BD00BF5481FF1F04ED00E080B584B000AF786000F0F4FD7B68002B0A
:4004400002D1334B1B6800E07B68FB60FB685B6CDBB21946292001F013FAFB680433184600F032FC0346002B15D1FB68DA6A294913469B0013449B000B441B68002B0AD1E6
:40048000FB68DB6A012202FA03F3DA43224B1B681340214A1360FB689B6A002B04D0FB681833184600F010FCFB68043319461B4800F0AEFB00F0CEFD194B1B68002B05D03B
:4004C00000F0B0FD00F0EEFA00F0C4FD104B1B68FA689A4218D1124B1B68002B08D0114B4FF080521A60BFF34F8FBFF36F8F0BE00A4B1A680C4B1B689A4203D1044B00220A
:400500001A6001E000F0BEF900BF1037BD4680BD5481FF1F5881FF1F3482FF1F1882FF1F3882FF1F04ED00E02C82FF1F80B584B002AF134B019300230093002364221149C3
:400540001148FFF79FFD78607B68012B14D14FF0A00383F31188BFF36F8FBFF34F8F3B600A4B4FF0FF321A60094B01221A60094B00221A6000F038FD00BF0837BD4680BD75
:400580005082FF1FBC2F00007D0900004C82FF1F3882FF1F3082FF1F80B400AF044B1B680133034A136000BFBD4680BC704700BF5482FF1F80B584B000AF0023FB6000237C
:4005C000BB6000F02FFD404B1B68013B3E4A13603D4B1B68002B6FD13C4B1B68002B6BD03CE03B4BDB68DB68FB60FB681833184600F06AFBFB680433184600F065FBFB680A
:400600005B6CDBB219460B2001F03AF9FB68DB6A01229A402F4B1B6813432E4A1360FB68DA6A13469B0013449B002B4A1A44FB6804331946104600F0EBFAFB685B6CDBB29A
:4006400019460C2001F01CF9FB68DA6A234B1B68DB6A9A4202D3224B01221A601C4B1B68002BBED1FB68002B01D000F01BFA1D4B1B687B607B68002B10D000F045F803461F
:40068000002B02D0164B01221A607B68013B7B607B68002BF1D1134B00221A60104B1B68002B09D00123BB600F4B4FF080521A60BFF34F8FBFF36F8F00F0CCFCBB681846FC
:4006C0001037BD4680BD00BF5482FF1F2C82FF1FEC81FF1F3482FF1F5881FF1F5481FF1F4082FF1F3C82FF1F04ED00E080B483B000AF044B1B687B607B6818460C37BD46D4
:4007000080BC70473082FF1F80B586B000AF00237B612C2001F086F84F4B1B68002B40F08B804E4B1B6801333B614C4A3B6913603B69002B10D14A4B1B68FB60494B1B68CC
:40074000474A1360474AFB681360474B1B680133454A136000F0A6F9444B1B683A699A425BD33F4B1B681B68002B01D1012300E00023002B04D03D4B4FF0FF321A604CE024
:40078000374B1B68DB68DB68BB60BB685B687B603A697B689A4203D2344A7B6813603CE0BB680433184600F08FFABB689B6A002B04D0BB681833184600F086FABB685B6C2D
:4007C000DBB219460B2001F05BF8BB68DB6A01229A40274B1B681343254A1360BB68DA6A13469B0013449B00224A1A44BB6804331946104600F00CFABB685B6CDBB219461A
:400800000C2001F03DF8BB68DA6A1B4B1B68DB6A9A42A6D301237B61A3E7174B1B68DA6A144913469B0013449B000B441B68012B07D901237B6104E0104B1B6801330F4A59
:4008400013600F4B1B68002B01D001237B617B6918461837BD4680BD5482FF1F3082FF1FE481FF1FE881FF1F4482FF1F4C82FF1F3482FF1F5881FF1F5481FF1F3C82FF1F23
:400880004082FF1F80B586B000AF374B1B68002B03D0364B01221A6061E0344B00221A60334B1B685B6CDBB21946062000F0E8FF2F4B1B681B6B7B614FF0A5333B617B691A
:4008C0001A683B699A4211D17B6904331A683B699A420BD17B6908331A683B699A4205D17B690C331A683B699A4208D0204B1A681F4B1B6834331946104600F0C3FC1D4B1A
:400900001B687B607B68B3FA83F3FB70FB78C3F11F03FB60FA6813469B0013449B00164A1344BB60BB685B685A68BB685A60BB685A68BB6808339A4204D1BB685B685A6809
:40094000BB685A60BB685B68DB68094A1360084B1B685B6CDBB21946022000F091FF00BF1837BD4680BD00BF5482FF1F4082FF1F5481FF1F3482FF1F5881FF1F80B582B07A
:4009800000AF786000F042F8FCE700BF80B582B000AF00237B600CE07A6813469B0013449B00124A1344184600F006F97B6801337B607B68042BEFD90D4800F0FDF80D48C1
:4009C00000F0FAF80C4800F0F7F80C4800F0F4F80B4800F0F1F80B4B054A1A600A4B054A1A6000BF0837BD4680BD00BF5881FF1FBC81FF1FD081FF1FEC81FF1F0082FF1F60
:400A00001882FF1FE481FF1FE881FF1F80B582B000AF28E0FFF7C0FD174B1B68002B0CBF01230023DBB27B60FFF7C4FD7B68002B19D100F0F7FA104BDB68DB683B603B68EA
:400A40000433184600F040F90C4B1B68013B0B4A13600B4B1B68013B094A136000F0FAFA386800F00FF8064B1B68002BD2D100BF0837BD4680BD00BF0082FF1F2C82FF1F79
:400A80001482FF1F80B582B000AF78607B681B6B184600F0DFF9786800F0DCF900BF0837BD4680BD80B483B000AF0E4B1B681B68002B01D1012300E00023002B04D00A4B35
:400AC0004FF0FF321A6008E0064B1B68DB68DB687B607B685B68044A136000BF0C37BD4680BC7047E481FF1F4C82FF1F80B584B000AF78603960294B1B68FB60284B1B6850
:400B00000433184600F0E0F80346002B0BD1244B1B68DB6A012202FA03F3DA43214B1B681340204A13607B68B3F1FF3F0AD13B68002B07D01A4B1B68043319461A4800F06B
:400B400067F826E0FA687B681344BB60144B1B68BA685A60BA68FB689A4209D2134B1A680F4B1B6804331946104600F075F810E00F4B1A680A4B1B6804331946104600F0D9
:400B80006BF80C4B1B68BA689A4202D2094ABB68136000BF1037BD4680BD00BF3082FF1F5481FF1F3482FF1F1882FF1FE881FF1FE481FF1F4C82FF1F80B483B000AF786005
:400BC0007B6803F108027B685A607B684FF0FF329A607B6803F108027B68DA607B6803F108027B681A617B6800221A6000BF0C37BD4680BC704700BF80B483B000AF7860C9
:400C00007B6800221A6100BF0C37BD4680BC704780B485B000AF786039607B685B68FB603B68FA685A60FB689A683B689A60FB689B683A685A60FB683A689A603B687A68AB
:400C40001A617B681B685A1C7B681A6000BF1437BD4680BC704700BF80B485B000AF786039603B681B68BB60BB68B3F1FF3F03D17B681B69FB600CE07B680833FB6002E055
:400C8000FB685B68FB60FB685B681A68BB689A42F6D9FB685A683B685A603B685B683A689A603B68FA689A60FB683A685A603B687A681A617B681B685A1C7B681A6000BF03
:400CC0001437BD4680BC704780B485B000AF78607B681B69FB607B685B687A6892689A607B689B687A6852685A60FB685A687B689A4203D17B689A68FB685A607B6800228A
:400D00001A61FB681B685A1EFB681A60FB681B6818461437BD4680BC704700BF80B588B000AF786000237B61FFF736FC454B1B68002B04D100F0D2F8424B01221A607B68C4
:400D4000002B0ED008231A467B6813447B607B6803F00703002B04D07B6823F0070308337B607B68002B57D07B6847F6F772934252D8354BBB61344B1B68FB6104E0FB69D6
:400D8000BB61FB691B68FB61FB695A687B689A4203D2FB691B68002BF1D1FB692B4A93423AD0BB691B68082213447B61FB691A68BB691A60FB695A687B68D31A0822520094
:400DC000934222D9FA697B681344FB60FB695A687B68D21AFB685A60FB697A685A60FB685B68BB60184B3B6102E03B691B683B613B691B685A68BB689A42F6D33B691A685D
:400E0000FB681A603B69FA681A60114B1A68FB695B68D31A0E4A13607B681B0ADBB27A68D2B21946322000F05FFDFFF7C3FB7B69002B01D100F03AFA7B6918462037BD464B
:400E400080BD00BF680200205802002060020020CC80FF1F80B586B000AF78607B683B617B68002B32D008235B423A6913443B613B69FB60FFF790FBFB685B68BB60154B86
:400E80007B6102E07B691B687B617B691B685A68BB689A42F6D37B691A68FB681A607B69FA681A60FB685A680B4B1B6813440A4A1360FB685B681B0AD9B2FB685B68DBB298
:400EC0001A46332000F010FDFFF774FB00BF1837BD4680BD58020020CC80FF1F80B483B000AF0F4B23F007037B600E4A7B6813600C4B00225A600C4B47F6F8725A600A4B55
:400F000000221A607B683B603B6847F6F8725A603B68054A1A6000BF0C37BD4680BC70476082FF1F580200206002002080B485B000AFF860B9607A60FB68043BFB60FB6870
:400F40004FF080721A60FB68043BFB60BB6823F00102FB681A60FB68043BFB60084AFB681A60FB68143BFB607A68FB681A60FB68203BFB60FB6818461437BD4680BC7047A0
:400F8000850F000080B483B000AF4FF0A00383F31188BFF36F8FBFF34F8F7B60FEE700BF074B19680868B0E8F00F80F30988BFF36F8F4FF0000080F311884EF00D0E7047EE
:400FC0005481FF1F00BF00BF06480068006880F3088862B661B6BFF34F8FBFF36F8F00DF00BF00BF08ED00E080B500AF0B4A0B4B1B6843F460031360084A084B1B6843F044
:401000006043136000F088F8054B00221A60FFF7DBFFFFF7B7FF0023184680BD20ED00E0D080FF1F80B483B000AF4FF0A00383F31188BFF36F8FBFF34F8F7B60044B1B68B5
:401040000133034A136000BF0C37BD4680BC7047D080FF1F80B483B000AF094B1B68013B074A1360064B1B68002B04D100237B607B6883F3118800BF0C37BD4680BC70476D
:40108000D080FF1F000000000000000000000000EFF30980BFF36F8F0D4B1A6820E9F00F10602DE908404FF0A00080F31188FFF7E9FB4FF0000080F31188BDE80840196879
:4010C0000868B0E8F00F80F30988BFF36F8F70475481FF1F00BF00BF80B582B000AF4FF0A00383F31188BFF36F8FBFF34F8F3B60FFF70AFB0346002B03D0064B4FF0805287
:401100001A6000237B607B6883F3118800BF0837BD4680BD04ED00E080B400AF044B054A1A60054B07221A6000BFBD4680BC704714E000E0F724010010E000E080B586B068
:4011400002AF78600023FB600CE0002301937B6800930023642207490748FEF793FFFB680133FB60FB68002BEFDD00BF1037BD4680BD00BFC42F00007D11000080B586B043
:4011800000AF7860FFF74EFF154B1B687B61144B1B680133124A1360FFF75CFF7B69013340F2E73202FB03F33B613B695B083B61FFF79CFA0346FB6007F10C0339691846A4
:4011C000FFF7A6F8786900F0EBF807F10C0339691846FFF79DF8786900F0E2F8ECE700BF6C02002080B483B000AF0346FB71084997F907305B09FA7902F01F02012000FA62
:4012000002F241F8232000BF0C37BD4680BC704700E100E080B500AF00F012F862B60120FFF7E0FF00F0C4FA0220FFF787FF62B601F06EF9002001F0EDF9FFF777F9FEE79B
:4012400080B500AF0B4B0C4ADA620A4B0B4A9A63084B0B4ADA6301F05BF900F039F801F0E7FA01F0F3FB01F039FD01F0EFFD00BF80BD00BF0080FF1FA10F00009110000051
:40128000D910000080B485B000AF786039604FF0A00383F31188BFF36F8FBFF34F8FFB6000BF1437BD4680BC704700BF80B483B000AF4FF0A00383F31188BFF36F8FBFF308
:4012C0004F8F7B6000BF0C37BD4680BC704700BF80B483B000AF00237B6007E0074A7B68134400221A707B6801337B607B68032BF4DD00BF0C37BD4680BC704770020020EE
:4013000080B582B000AF78603960FFF78BFE7B68032B2FD801A252F823F000BF2D1300003F13000051130000631300003B68DBB203F00103DBB2184601F082F91BE03B6848
:40134000DBB203F00103DBB2184601F097F912E03B68DBB203F00103DBB2184601F03AFB09E03B68DBB203F00103DBB2184601F04FFB00E000BFFFF76DFE7B68032B09D82B
:401380003B68DBB203F00103D9B2044A7B6813440A461A7000BF0837BD4680BD7002002080B582B000AF78607B68032B0DD8094A7B6813441B78DBB2002B0CBF012300237B
:4013C000DBB219467868FFF79BFF00BF0837BD4680BD00BF7002002080B584B000AF78600B46FB70174B1B680133164A9268B3FBF2F102FB01F29B1AFB60124B5A68FB68D0
:401400009A4201D1012319E00E4B1A681346DB00134408330B4A13440433FA787968184601F0AEFD074B1B68FA78064903F6325341F82320034AFB68136000231846103795
:40144000BD4680BD9419002080B584B000AF78600B46FB70164B1B680133154A9268B3FBF2F102FB01F29B1AFB60114B5A68FB689A4201D1012316E00D4B1B6808330C4AFC
:4014800013440433FA787968184601F079FD084B1B68FA78064906339B000B445A60044AFB681360002318461037BD4680BD00BF3C19002080B584B000AF78600B46FB7006
:4014C000184B1B680133174A9268B3FBF2F102FB01F29B1AFB60134B5A68FB689A4201D101231AE00F4B1A6813465B0013445B0008330C4A13440433FA787968184601F094
:401500003FFD084B1B68FA78064902339B000B445A60044AFB681360002318461037BD4680BD00BFCC65002080B582B000AF78600B46FB701346BB70BB78012B0BD0022B2E
:4015400002D0002B0ED014E0FB7819467868FFF77BFF03460EE0FB7819467868FFF73CFF034607E0FB7819467868FFF7A3FF034600E0012318460837BD4680BD80B582B055
:4015800000AF78603960194B1A68184B5B689A4226D0164B5B68154A03F6325352F82330DAB23B681A70114B5A681346DB00134408330E4A1344191D3B681B781A46786897
:4015C00001F0DEFC094B5B680133084A9268B3FBF2F102FB01F29B1A044A5360002300E0012318460837BD4680BD00BF9419002080B582B000AF78603960174B1A68164BF6
:401600005B689A4223D0144B5B68134A06339B0013445B68DAB23B681A700F4B5B6808330D4A1344191D3B681B781A46786801F0A7FC094B5B680133074A9268B3FBF2F185
:4016400002FB01F29B1A044A5360002300E0012318460837BD4680BD3C19002080B582B000AF78603960194B1A68184B5B689A4227D0164B5B68154A02339B0013445B6878
:40168000DAB23B681A70114B5A6813465B0013445B0008330D4A1344191D3B681B781A46786801F06DFC094B5B680133074A9268B3FBF2F102FB01F29B1A044A536000230E
:4016C00000E0012318460837BD4680BDCC65002080B584B000AFF860B9607A60B968F868FFF786FF0346002B04D17B6802221A70002318E0B968F868FFF740FF0346002B3A
:4017000004D17B6801221A7000230CE0B968F868FFF7A4FF0346002B04D17B6800221A70002300E0012318461037BD4680BD00BF80B400AF064B00221A60054B00225A607C
:40174000034B40F2DC529A6000BFBD4680BC70479419002080B400AF064B00221A60054B00225A60034B0F229A6000BFBD4680BC704700BF3C19002080B400AF064B00228B
:401780001A60054B00225A60034B00229A6000BFBD4680BC704700BFCC65002080B500AFFFF7C6FFFFF7D6FFFFF7E6FF00BF80BD80B582B002AFFFF7F1FF00F039F900F003
:4017C000A7FE002000F016FF202000F003FF00F0D7FF00F06FFF0D22FF21084801F0DBFB074B0193012300930023642205490648FEF748FC00231846BD4680BD80020020E5
:4018000074020020CC2F0000D91D000080B500AF034B1B681846FEF70BFE00BF80BD00BF7402002080B584B000AF0346FB71FB797B72FEF75BFF03461B0ADBB2BB72FEF725
:4018400055FF0346DBB2FB720C4B1B681B0ADBB23B730A4B1B68DBB27B7307F10803012206211846FFF760FE0346002B02D0652000F0B0F800BF1037BD4680BD18E000E0C4
:4018800080B584B000AF03460A46FB711346BB71FB797B72FEF72AFF03461B0ADBB2BB72FEF724FF0346DBB2FB720E4B1B681B0ADBB23B730B4B1B68DBB27B73BB79BB7392
:4018C00007F10803012207211846FFF72DFE0346002B02D0652000F07DF800BF1037BD4680BD00BF18E000E080B584B000AF0346FB710B46BB7113467B71FB797B72FEF729
:40190000F5FE03461B0ADBB2BB72FEF7EFFE0346DBB2FB720E4B1B681B0ADBB23B730C4B1B68DBB27B73BB79BB737B79FB7307F10803012208211846FFF7F6FD0346002B08
:4019400002D0652000F046F800BF1037BD4680BD18E000E090B587B000AF0446084611461A462346FB710346BB710B467B7113463B7100233B73FB797B73FEF7B7FE034698
:401980001B0ADBB2BB73FEF7B1FE0346DBB2FB730F4B1B681B0ADBB23B740D4B1B68DBB27B74BB79BB747B79FB743B793B7507F10C03012209211846FFF7B6FD0346002BD1
:4019C00002D0652000F006F800BF1C37BD4690BD18E000E080B584B000AF0346FB71FB797B72FEF783FE03461B0ADBB2BB72FEF77DFE0346DBB2FB720C4B1B681B0ADBB25D
:401A00003B730A4B1B68DBB27B7307F10803002206211846FFF788FD0346002B01D0FFF7F5FE00BF1037BD4680BD00BF18E000E080B483B000AF00237B6027E0174A7B6816
:401A4000134401221A707B68D8B2154A7B684FF48E7101FB03F31344023302461A70104A7B684FF48E7101FB03F31344013397221A700B4A7B684FF48E7101FB03F313441F
:401A8000033300221A707B6801337B607B68052BD4D900BF0C37BD4680BC7047D86500209412002080B483B000AF0346FB71FB79094AD35CFF2B01D1002307E0FB79064AEC
:401AC000D25C511CC8B20449C854134618460C37BD4680BC704700BFD865002090B587B000AF03463960FB71386801F05CFA3861FB791846FFF7D6FF0346FB73F979FB7B27
:401B00005A1E34481346DB009B1A5B004FF48E7202FB01F2134403440433FA7B1A703B690B2B02D90C237B6101E03B697B61F979FB7B5A1E1346DB009B1A5B004FF48E725E
:401B400002FB01F21344234A134406337A693968184601F015FAF979FB7B5A1E1D481346DB009B1A5B004FF48E7202FB01F21344C2187B691344063300221A70F979FB7BCA
:401B80005A1E7B69DCB213481346DB009B1A5B004FF48E7202FB01F213440344053322461A70FB790B494FF48E7202FB03F20A44033212780132D0B2064A4FF48E7101FB54
:401BC00003F31344033302461A70FB7B18461C37BD4690BD9412002080B588B000AF78600023FB730023BB61CBE0FD2000F0C4F9012000F0FFFCFE2000F0BEF9012000F038
:401C0000F9FCFF2000F0B8F9012000F0F3FC7B681B785A1CD1B27A6811705E49BA694FF48E7000FB02F20A4413705A4ABB694FF48E7101FB03F313441B78184600F09CF989
:401C4000012000F0D7FC534ABB694FF48E7101FB03F3134401331B78184600F08DF9012000F0C8FC4B4ABB694FF48E7101FB03F3134402331B78184600F07EF9012000F0E2
:401C8000B9FC444ABB694FF48E7101FB03F3134403331B78FB73FB7B184600F06DF9012000F0A8FC00237B6152E03A487A69B9691346DB009B1A5B004FF48E7202FB01F2ED
:401CC0001344034404331B78184600F055F9012000F090FC2F487A69B9691346DB009B1A5B004FF48E7202FB01F21344034405331B78BB73BB7B184600F03EF9012000F0ED
:401D000079FC7A691346DB009B1A5B00BA694FF48E7101FB02F213441E4A13440633FB6100233B610DE0FB691B78184600F024F9012000F05FFCFB690133FB613B690133C1
:401D40003B61BA7B3B699A42EDDC7B6901337B61FA7B7B699A42A8DCFD2000F00DF9012000F048FCFE2000F007F9012000F042FCFF2000F001F9012000F03CFCBB6901332D
:401D8000BB61BB69052B7FF730AF00BF2037BD4680BD00BF9412002080B485B000AF0346FB71FB79DB08FB73FB7B0A4AD35C1A46FB7903F0070342FA03F303F00103002BD3
:401DC00001D0012300E0002318461437BD4680BC704700BF8002002080B58EB000AF00237B71002387F83730002387F82F30BA1DF91D07F108031846FFF76AFC0346002B92
:401E000040F0B280BB79012B04D0022B73D0002B3DD0AEE007F10803FB61FB695B781846FFF7BAFF0346002B00F0A2807B795A1CD2B27A71FA691370FD2000F09DF801202B
:401E400000F0D8FBFE2000F097F8012000F0D2FBFF2000F091F8012000F0CCFBFB693B6300237B620DE03B6B1B78184600F084F8012000F0BFFB3B6B01333B637B6A013366
:401E80007B62FB791A467B6A9A42ECD870E007F10803BB617B795A1CD2B27A71BA691370FD2000F069F8012000F0A4FBFE2000F063F8012000F09EFBFF2000F05DF8012048
:401EC00000F098FBBB693B6300233B620DE03B6B1B78184600F050F8012000F08BFB3B6B01333B633B6A01333B62FB791A463B6A9A42ECD83DE007F108037B6197F8373091
:401F0000002B02D0012B13D02DE07B691B78972B02D0982B05D00AE07B1D1846FFF75CFE05E0012387F83730124BBB6200BF1AE097F82F300C2B15D87B691A78BB6A1A705C
:401F4000BB6A0133BB6297F82F30013387F82F3097F82F300C2B05D9002387F82F30002387F8373000BF04E00A20FEF72FFA3EE700BF3CE78002002080B485B000AF0346E9
:401F8000FB71124B03F5805301331B780133FB730E4B03F580531B78FA7B9A4201D100230FE00A4B03F5805301331B781946074AFB795354054B03F580530133FA7B1A7038
:401FC000012318461437BD4680BC70479002002080B483B000AF7860124B03F580531A78104B03F5805301331B789A4201D1002313E00C4B03F580531B781A46094B9A5CB4
:402000007B681A70074B03F580531B780133DAB2044B03F580531A70012318460C37BD4680BC70479002002080B582B000AF786039603A680021786800F0ADFF00BF0837EE
:40204000BD4680BD80B584B000AFF860B9607A607A68B968F86800F093FF00BF1037BD4680BD00BF80B483B000AF0346FB71FEE780B487B000AF7860396000233B610023B6
:402080007B6127E07B699B007A6813441B68BB60BB68FB73BB6823F0FF03BB6014E03B695B003A6813441B781A46BB68134419463B695B003A6813445B780B703B6901332D
:4020C0003B61FB7B013BFB73FB7B002BE7D17B6901337B617B691E2BD4D900BF1C37BD4680BC704780B582B000AF334B09221A80324B18221A70324B4A221A80314B182222
:402100001A70314B06221A70304B52221A70304B304A1278D2B21A702F4B40F219721A802E4B42F251221A800023FB7019237B6014E0FB785B00DAB2294B1B78DBB203F0DC
:402140000103DBB21343DBB203F00303FB704FF4F07000F0D9FE7B68013B7B607B68002B02D0FB78032BE4D17B68002B02D10320FFF778FF1B4B4FF480721A80194B0722BA
:402180001A70194B00221A70184B48221A70154B00221A70164B00221A70164B02221A70154A154B1B78DBB243F00303DBB2137000BF0837BD4680BD80400040824000409E
:4021C00084400040864000400043004000420040A14600400F0100492242004020420040254200400440004006400040084000400940004001400040A243004080B483B03B
:4022000000AF0B4B1B78FB710A4AFB7903F00703DBB21370084AFB791B09DBB21370074B44221A7000BF0C37BD4680BC704700BFCF0100496E5800406F580040765800409E
:4022400080B586B000AF72B64D4B61221A70FFF749FF4C4A4B4B1B78DBB243F00403DBB213700023FB7513E0FA7D13465B0013445B00454A13443B613B691A683B699B88D1
:402280009BB219461046FFF7CFFEFB7D0133FB75FB7D072BE8D90023FB751CE0FA7D13469B0013445B00394A1344FB60FB681B68BB60FB685B687B60FB681A7A5B7A1B0206
:4022C00013437B807B881A467968B868FFF7BAFEFB7D0133FB75FB7D002BDFD02C494FF09040FFF7C5FE2B4A2A4B1B78DBB243F00203DBB21370284A274B1B78DBB243F047
:402300000203DBB21370254A244B1B78DBB243F04003DBB21370224A214B1B78DBB243F01003DBB2137008221E491F48FFF78AFE0A221E491E48FFF785FE0A221D491E48D6
:40234000FFF780FE08221D491D48FFF77BFE0A221C491D48FFF776FE1C4A1C4B1B78DBB243F00803DBB21370FFF748FF0E220B491748FFF767FE00BF1837BD4680BD00BF62
:4023800000480040E8460040D82F0000083000007C0000480350014013500140A0430040C2430040C806004802510040D0060048C0510040DC060048F0510040E80600488B
:4023C00012510040F00600482051004022430040B043004080B500AF00F0A6FD03461B680C2B00D1FEE7FEE780B586B000AF224B7B61224B3B61204B7B6135E03B691B686F
:40240000FB603B695B68BB603B699B683B6000237B600CE0FB681A68BB681A60BB680433BB60FB680433FB607B6804337B607A683B689A42EED13B69DB683B6000237B6012
:4024400008E0BB6800221A60BB680433BB607B6804337B607A683B689A42F2D13B6910333B617B69013B7B617B69002BC6D100F061FDFEF7CFFEFEE70100000038300000A4
:4024800080B582B000AF184B184A1A60184A184B1B6843F40073136000237B600FE07B68032B04D8134A7B6852F8233000E0124B12497A6841F822307B6801337B607B68D1
:4024C0002F2BECD90E4B1B78DAB20E4B1A700E4B0A4A1A60FFF7B4FE0C4B00221A6000BF0837BD4680BD00BF0CED00E00004FA0514ED00E000000000D52300000080FF1F50
:40250000BC760040C480FF1F08ED00E0C080FF1F80B500AF064B1B78002B04D100F00AF8034B01221A7000F025F800BF80BD00BF7802002080B400AF094B7A221A70094BCC
:4025400020221A70084B06221A70084B47221A70074B01221A7000BFBD4680BC704700BF89650040886400402B6400403B6400408A64004080B582B000AF00F0CDFC034683
:40258000FB71114A104B1B78DBB243F02003DBB213700E4A0D4B1B78DBB243F01003DBB213700B4A0A4B1B78DBB243F01003DBB2137000F08FFCFB79184600F0B1FC00BF84
:4025C0000837BD4680BD00BF99650040986400409A64004080B483B000AF0346FB71044AFB79137000BF0C37BD4680BC704700BF8864004080B483B000AF0346FB71044AD9
:40260000FB79137000BF0C37BD4680BC704700BF8A64004080B483B000AF0346FB71064B1B78002B02D0054AFB79137000BF0C37BD4680BC704700BF780200204A6400408D
:4026400080B485B000AF0346FB710B4B1B78DBB223F00203FB730849FB795B00DBB203F00203DAB2FB7B1343DBB20B7000BF1437BD4680BC704700BF2051004080B485B0B3
:4026800000AF0346FB710A4B1B78DBB223F00103FB730749FB7903F00103DAB2FB7B1343DBB20B7000BF1437BD4680BC704700BF0051004080B500AF00F056F8044800F0F3
:4026C00023F8052000F032F800F042F800BF80BDD526000080B582B000AF0023FB71FB1D1846FFF775FC0346012B03D1054BFA791A7002E00020FFF77DFF00BF0837BD46D2
:4027000080BD00BF4A64004080B485B000AF7860054B1B68FB60FB685C337A681A6000BF1437BD4680BC704708ED00E080B483B000AF0346FB71054AFB795B01DBB2137074
:4027400000BF0C37BD4680BC704700BF07E400E080B400AF034B80221A6000BFBD4680BC704700BF00E100E080B400AF034B80221A6000BFBD4680BC704700BF80E100E053
:4027800080B500AF00F048F8044800F015F8052000F024F800F034F800BF80BDA127000080B500AF022201210248FEF7BDFE00BF80BD00BF4864004080B485B000AF7860F0
:4027C000054B1B68FB60FB6858337A681A6000BF1437BD4680BC704708ED00E080B483B000AF0346FB71054AFB795B01DBB2137000BF0C37BD4680BC704700BF06E400E011
:4028000080B400AF034B40221A6000BFBD4680BC704700BF00E100E080B400AF034B40221A6000BFBD4680BC704700BF80E100E080B500AF064B1B78002B04D100F00AF8DA
:40284000034B01221A7000F04FF800BF80BD00BF7A02002080B582B000AF204B1B78DBB223F03F03FB711D4AFB7943F00903DBB213701B4A1A4B1B78DBB243F00103DBB295
:402880001370184A174B1B78DBB243F00103DBB213704FF4FA7000F037F84FF4FA7000F051F8FA2000F05EF8002000F06BF800F033FB0346BB710A4A094B1B78DBB243F057
:4028C0001003DBB21370BB79184600F029FB00F02BF800BF0837BD4680BD00BF76650040966500409765004080B400AF054A054B1B78DBB263F07F03DBB2137000BFBD4624
:4029000080BC70477665004080B483B000AF0346FB80044AFB88138000BF0C37BD4680BC704700BF0C6A004080B500AF01E000F045F800F037F8034603F01003002BF6D18C
:4029400000BF80BD80B483B000AF0346FB80044AFB88138000BF0C37BD4680BC704700BF8C6A004080B483B000AF0346FB80044AFB88138000BF0C37BD4680BC704700BF3B
:402980004C6A004080B483B000AF0346FB71044AFB79137000BF0C37BD4680BC704700BF8665004080B400AF034B1B78DBB21846BD4680BC704700BF6665004080B400AFDD
:4029C000034B1B889BB21846BD4680BC704700BFAC6A004080B485B000AF0346FB710B4B1B78DBB223F00203FB730849FB795B00DBB203F00203DAB2FB7B1343DBB20B7062
:402A000000BF1437BD4680BC704700BF0051004080B485B000AF0346FB710B4B1B78DBB223F00403FB730849FB799B00DBB203F00403DAB2FB7B1343DBB20B7000BF14372A
:402A4000BD4680BC704700BF0051004080B500AF064B1B78002B04D100F00AF8034B01221A7000F051F800BF80BD00BF7B02002080B582B000AF204B1B78DBB223F03F03D4
:402A8000FB711D4AFB7943F00903DBB213701B4A1A4B1B78DBB243F00103DBB21370184A174B1B78DBB243F00103DBB2137040F2F51000F039F840F2F51000F053F8FA2040
:402AC00000F060F8002000F06DF800F025FA0346BB710C4A0B4B1B78DBB243F01003DBB21370BB79184600F01BFA00F02DF800BF0837BD4680BD00BF776500409865004071
:402B0000996500409765004080B400AF054A054B1B78DBB263F07F03DBB2137000BFBD4680BC70477765004080B483B000AF0346FB80044AFB88138000BF0C37BD4680BC44
:402B4000704700BF106A004080B500AF01E000F045F800F037F8034603F01003002BF6D100BF80BD80B483B000AF0346FB80044AFB88138000BF0C37BD4680BC704700BFE2
:402B8000906A004080B483B000AF0346FB80044AFB88138000BF0C37BD4680BC704700BF506A004080B483B000AF0346FB71044AFB79137000BF0C37BD4680BC704700BF25
:402BC0008765004080B400AF034B1B78DBB21846BD4680BC704700BF6765004080B400AF034B1B889BB21846BD4680BC704700BFB06A004080B500AF224A224B1B78DBB2CE
:402C000003F00103DBB213701F4A1F4B1B78DBB223F00303DBB213701C4A1C4B1B78DBB223F03003DBB21370184A184B1B78DBB243F03003DBB21370144A144B1B78DBB2F6
:402C400023F00F03DBB21370104A104B1B78DBB243F00F03DBB213700D4A0D4B1B78DBB243F00103DBB2137040F65F1000F058F840F65F1000F066F8002000F041F800BFFF
:402C800080BD00BF004F0040024F00400B4F0040014F004080B400AF0D4A0D4B1B78DBB243F00103DBB213700A4A0A4B1B78DBB243F00103DBB21370074A074B1B78DBB202
:402CC00043F00103DBB2137000BFBD4680BC7047A3430040B3430040004F004080B500AF064B1B78002B04D1FFF784FF034B01221A70FFF7CFFF00BF80BD00BF7C02002094
:402D000080B483B000AF0346FB71044AFB79137000BF0C37BD4680BC704700BF034F004080B485B000AF0346FB80FB88FB81044AFB89138000BF1437BD4680BC704700BF3B
:402D4000044F004080B483B000AF0346FB80044AFB88138000BF0C37BD4680BC704700BF064F004080B500AF224A224B1B78DBB203F00103DBB213701F4A1F4B1B78DBB25F
:402D800023F00303DBB213701C4A1C4B1B78DBB223F03003DBB21370184A184B1B78DBB243F03003DBB21370144A144B1B78DBB223F00F03DBB21370104A104B1B78DBB265
:402DC00043F00F03DBB213700D4A0D4B1B78DBB243F00103DBB213704FF6FF7000F058F84FF6FF7000F066F8002000F041F800BF80BD00BF0C4F00400E4F0040174F004090
:402E00000D4F004080B400AF0D4A0D4B1B78DBB243F00203DBB213700A4A0A4B1B78DBB243F00203DBB21370074A074B1B78DBB243F00103DBB2137000BFBD4680BC70472C
:402E4000A3430040B34300400C4F004080B500AF064B1B78002B04D1FFF784FF034B01221A70FFF7CFFF00BF80BD00BF7D02002080B483B000AF0346FB71044AFB791370F1
:402E800000BF0C37BD4680BC704700BF0F4F004080B485B000AF0346FB80FB88FB81044AFB89138000BF1437BD4680BC704700BF104F004080B483B000AF0346FB80044AF7
:402EC000FB88138000BF0C37BD4680BC704700BF124F004080B400AF094A094B1B78DBB243F00103DBB21370064A064B1B78DBB243F00103DBB2137000BFBD4680BC7047B6
:402F0000A2430040B24300400230800803D000BF01380046FCD17047EFF3108072B6704780F31088704700BF014B1868704700BF3481FF1F0E4B70B51E460E4C0025E41AA2
:402F4000A410A54204D056F8253098470135F8E700F060F8084B094C1E46E41AA4100025A54204D056F8253098470135F8E770BD2030000020300000203000002830000059
:402F800010B5431E0A44914204D011F8014B03F8014FF8E710BD03460244934202D003F8011BFAE77047034613F8012B002AFBD1181A0138704700000000000049444C450F
:402FC000000000004C45447800000000736E6966665461736B000000004F0040180030510040400000000140001000140140800400190140000300400140000A004C014094
:403000000002005001402000801801404806004880004300F8B500BFF8BC08BC9E4670474D00000081240000F8B500BFF8BC08BC9E4670472900000048300000C880FF1FB4
:4030400070000000A8E4000000000000F87F0000AAAAAAAA0000000000000000000000000000000000000000000000000000000000000000123000000000000000000000F3
:4030800000000000000000000000000000000000000000000000000000000000000000000000000000000000000000000000000000000000D480FF1F00000000000000009E
:4030C00000000000000000000000000000000000000000000000000000000000000000000000000000000000000000000000000000000000000000000000000000000000D0
:40310000000000000000000000000000000000000000000000000000000000000000000000000000000000000000000000000000000000000000000000000000000000008F
:40314000000000000000000000000000000000000000000000000000000000000000000000000000000000000000000000000000000000000000000000000000000000004F
:40318000000000000000000000000000000000000000000000000000000000000000000000000000000000000000000000000000000000000000000000000000000000000F
:020000040003F7
:0200000480007A
:4000000001450040044F004004520040026400400365004001030140020701404F080140380901405D0A01403A0B0140040C0140020D0140031501405516014031170140BD
:400040001618014049190140441A01403F1B0140064001400A4101400942014008430140044701400648014004490140054C0140074D014009500140025101407E0201800A
:400080000A4B0D80164B1404608061807C40883A8A0F860D870D897AE602E602EE0401021202130215011E01230225022A012E02300231023201350139023E053F104062DC
:4000C000410442054403460C470E481449FF4AFF4BFF4C624DA04EF04F41500C541A5604580459045A045B045F016640670269106A306B106D106E106F1281128305840331
:40010000867C8802893F8A408C108D048F18901F912092609408950997069804993F9C7DA263A403A620A81CAC1CAE63B11CB303B47FB520BA20D804D904DF010080012069
:400140000320084009010A240E020F8010801202131815401608174018081B201F0520482128240426012C402F2030203108330136023704384039103B013D024521470849
:400180004C044D40560857405C105D02674A87409B04A880A901AB01C007C29FC4CFCAC0CCC7CE8DD0E0D230D6A0D8B0040306040701080309080A0C0B01140A160419057D
:4001C0001A081D022505260528032A042B053101320F3302350C360F39203A883F0540134102450B460E470C481549FF4AFF4BFF4EF04F44500C54015604580459045A049B
:400200005B045F0166C06A406B02814084018550860E8B01941C9603970C99249B409C019E16A533A603A744A972AA1CAB08AD43AE08AF30B20FB303B41AB57CB908BA2814
:40024000BF04C002C740C9FFCA07CBFFCC40CD20CEF0CF05D008D804D904DA04DF01E040E1A8E240E320001003200404081009080D080E01102813201520162218111988BD
:400280001A011C041D081F28211022242380271429082B082D802F283080332034103620370438083A203E023F2440014220432047104B04508C54205622571059015A082E
:4002C0005BA0634093029740C026C2A6C4E6CA76CC6CCEE6D02ED60FD80138023E0158045F011F018740AA40AF08B404060217041B041F022101260127012A023302340234
:400300003504360137013E104020410649FF4AFF4BFF4DA04F04501852805405580459045A045B045C115D115F01604062C06440654066C068C06AC06CC06EC086028701D4
:400340009204970198019B02A601AA02B002B301B404B502B601BF04C030C106C5D0C610C702C81AC9FFCAFFCBFFCDAFCE0FCF04D018D280D405D804D904DA04DB04DC11AD
:40038000DD11DF01E040E2C0E440E540E6C0E8C0EAC0ECC0EEC000040720092210141614180419801A801E081F80212022042410264027282FA03014360837603804401096
:4003C000472049024A084E08521C532059805A085B025D025E887102774084148F02C024C20AC466CAC0CC76CE02D022D224D6DBE208E602EA02EE0A4030410449FF4AFF87
:400400004BFF4DA04F04501856085A045B045D915F01604062C06440654066C068C06AC06CC06EC00088012803800408061009A10AE0100512121311191021A02206230800
:40044000280129182B8030023128324038483B113D083E044220466049044B80524053505A025C806701686069106B817206731080028104875089028A048D0490489410F6
:400480009510962497119C409D229F49A004A108A460A501A602B080B120B404C00FC20FC40FCA0FCC0FCE0FD0C2D208D611D810E210EA02EE0A00DD02220423050206DC34
:4004C0000701083E0A810C060D010EF91027110212D8130114101501181019011F01210322FF24212501264E281029012C102D022F0130E031023301341F3A223F01580435
:4005000059045F0180088501870E8C0F8D08900E910F9201940E950E980299049D0E9E019F01A00EA201A301A404A502A801AA0EAD0FB10FB60FBA80D804D904DF0101201A
:400540000212038004800780082009040A400C840D020E041084138A14601608188019201A401B011F80201022012740286029202B812C902E4430943102320234643602A0
:4005800038483A083CC03E0888048B028C80900892049410964298249A109B889CC09D209F40A044A104A202A780B420B632C09FC2FEC47FCADFCCFFCE5AEC403381364083
:4005C00037023B10CCF0CE10320133403620860197109F03A640A780CC70E640130258085C0897109F43A660A780C410D6C0862097109F41A660A780A808E640EE2008085B
:400600000B040F40C20E97109F40AE40AF81EA40EE50AB40AF10EA10EE80A002AC08AF44B402EC02122074028E20A002C408DE04E208000102140C011003110112141A0266
:400640001C031D0100EA01BFF90002480011C70200028400200000203F02C000100000400010400100130800080200100F00F011300000043A02C51100070010FF60000805
:40068000000000020000101030050000000D12000DFFFFFF00AF0F04180000000000021304040404000100014000C0004040C000C000C000C000C000000000000000000079
:4006C000000000000000000000070700000000008000408080008000000000004000000000000000C0000000000B0B0000000000040000060200000000000000000000008A
:4007000000000000000000000000000000000000000000000000000000000000000000000000000000000000000000000000000000000000000000000000000000000000B9
:400740000000000000000000000000000000000000000000000000000000000000000000000000000000000000000000000000000000000000000000000000000000000079
:400780000000000000000000000000000000000000000000000000000000000000000000000000000000000000000000000000000000000000000000000000000000000039
:4007C00000000000000000000000000000000000000000000000000000000000000000000000000000000000000000000000000000000000000000000000000000000000F9
:0200000490006A
:0400000000004005B7
:0200000490105A
:04000000BC90ACAF55
:0200000490303A
:02000000288254
:0200000490402A
:4000000000000000000000000000000000000000000000000000000000000000000000000000000000000000000000000000000000000000000000000000000000000000C0
:400040000000000000000000000000000000000000000000000000000000000000000000000000000000000000000000000000000000000000000000000000000000000080
:400080000000000000000000000000000000000000000000000000000000000000000000000000000000000000000000000000000000000000000000000000000000000040
:4000C0000000000000000000000000000000000000000000000000000000000000000000000000000000000000000000000000000000000000000000000000000000000000
:0200000490501A
:0C00000000012E16106900012E2B38EBB9
:00000001FF