:100000000C9434000C9451000C9451000C94510049
:100010000C9451000C9451000C9451000C9451001C
:100020000C9451000C9451000C9451000C941A0340
:100030000C9451000C9451000C9451000C945100FC
:100040000C9451000C9451000C9453000C94A20099
:100050000C9451000C9451000C9451000C945100DC
:100060000C9451000C94510011241FBECFEFD8E026
:10007000DEBFCDBF11E0A0E0B1E0E0E0F7E102C0FB
:1000800005900D92AC31B107D9F727E0ACE1B1E0B2
:1000900001C01D92AB32B207E1F70E940E010C9431
:1000A0007E0B0C9400001F920F920FB60F9211243A
:1000B0001F932F933F934F935F936F937F938F93F0
:1000C0009F93AF93BF93EF93FF93CF93DF931F92D1
:1000D000CDB7DEB71091C0008091C600898342E0A1
:1000E00061E0CE0101960E943007812F8C71E09172
:1000F0001E01EF5FEF7090911D01E91741F0E09351
:100100001E01F0E09981EF5DFE4F908301C082E017
:1001100090911C01892B80931C010F90DF91CF914E
:10012000FF91EF91BF91AF919F918F917F916F91CF
:100130005F914F913F912F911F910F900FBE0F90A4
:100140001F9018951F920F920FB60F9211248F9344
:100150009F93EF93FF93F8949091200180911F015A
:10016000981761F0E0911F01EF5FE0931F01F0E04D
:10017000EF5CFE4F80818093C60005C0E1ECF0E0AB
:1001800080818F7D80837894FF91EF919F918F91F3
:100190000F900FBE0F901F90189510922001109293
:1001A0001F0110921E0110921D0199231CF422E0E0
:1001B0002093C00090789093C5008093C40088E994
:1001C0008093C10086E08093C200089520912001B1
:1001D0002F5F90911F012917E1F3E22FF0E0EF5C10
:1001E000FE4F808320932001E1ECF0E0808180626B
:1001F000808308958FEF84B985B1809585B984E6B1
:1002000090E00E949C06F8CF8FEF87B988B1809567
:1002100088B988EE93E00E949C06F8CF789480E03D
:1002200090E00E94CD000E9423080F2EF9EEEF2EE1
:10023000F6E0FF2EF02D02E020E030E045E550E052
:1002400060E071E08AEF90E00E94FC0320E030E083
:1002500045E550E066E071E084E091E00E94FC0337
:100260000E941505FFCFFC010396928381832FEF37
:100270003FEF34832383968385839087878310821F
:100280000895FC01118610860895CF93DF939C0199
:10029000FB01DC011196CD91DC911297D383C283CF
:1002A0008C819D81958384838C819D81DC01139653
:1002B0007C936E9312977D836C8331872087F9013D
:1002C00080818F5F8083DF91CF910895CF93DF93FB
:1002D000EB01488159814F3F2FEF520721F4FC0178
:1002E000A781B0850DC0DC01139601C0DF01129615
:1002F000ED91FC9113972081318142175307B0F79C
:100300001296ED91FC911397FB83EA83D583C48306
:10031000BD83AC831396DC93CE931297998788871D
:10032000FC0120812F5F2083DF91CF910895CF932F
:10033000DF93FC01A085B185C281D3818481958141
:100340009D838C83C481D581828193819B838A83A1
:100350001196CD91DC911297CE17DF0731F48C8185
:100360009D8112969C938E931197118610868C9185
:1003700081508C938C91DF91CF91089531E1FC01F4
:100380003083319722E220833197A3E3A083319712
:1003900060833197708331971082319760E8608372
:1003A00031971082319762E06083319763E0608318
:1003B000319764E06083319765E06083319766E050
:1003C0006083319767E06083319768E0608331979D
:1003D00069E06083319760E16083319730833197C2
:1003E00032E13083319733E13083319734E1308328
:1003F000319735E13083319736E13083319737E1FA
:100400003083319738E13083319739E13083319748
:1004100030E23083319731E2308331972083319756
:1004200023E220833197408331975083319726E22E
:100430002083319727E22083319728E22083319768
:1004400029E22083319720E32083319721E3208321
:10045000869708958EE3809389008FE780938800C4
:1004600089E080938100EFE6F0E080818260808304
:10047000A0919405B0919505CD91CDBFDD91DEBFE2
:10048000FF91EF91DF91CF91BF91AF919F918F91AC
:100490007F916F915F914F913F912F911F910F919C
:1004A000FF90EF90DF90CF90BF90AF909F908F9094
:1004B0007F906F905F904F903F902F901F900F9084
:1004C0000FBE0F90089581E008950F920FB6F89433
:1004D0000F921F9211242F923F924F925F926F9230
:1004E0007F928F929F92AF92BF92CF92DF92EF92C4
:1004F000FF920F931F932F933F934F935F936F93AD
:100500007F938F939F93AF93BF93CF93DF93EF939B
:10051000FF93A0919405B09195050DB60D920EB67E
:100520000D920E94BA06A0919405B0919505CD91C7
:10053000CDBFDD91DEBFFF91EF91DF91CF91BF91F4
:10054000AF919F918F917F916F915F914F913F916B
:100550002F911F910F91FF90EF90DF90CF90BF9060
:10056000AF909F908F907F906F905F904F903F9053
:100570002F901F900F900FBE0F9008950F920FB6FF
:10058000F8940F921F9211242F923F924F925F92F4
:100590006F927F928F929F92AF92BF92CF92DF9293
:1005A000EF92FF920F931F932F933F934F935F937D
:1005B0006F937F938F939F93AF93BF93CF93DF936B
:1005C000EF93FF93A0919405B09195050DB60D9210
:1005D0000EB60D920E944F0581110E94BA06A0919D
:1005E0009405B0919505CD91CDBFDD91DEBFFF9112
:1005F000EF91DF91CF91BF91AF919F918F917F91BB
:100600006F915F914F913F912F911F910F91FF90AB
:10061000EF90DF90CF90BF90AF909F908F907F90A2
:100620006F905F904F903F902F901F900F900FBE54
:100630000F9008951F920F920FB60F9211242F93CF
:100640003F934F935F936F937F938F939F93AF935A
:10065000BF93EF93FF930E94BE02FF91EF91BF9172
:10066000AF919F918F917F916F915F914F913F914A
:100670002F910F900FBE0F901F9018950F931F93FF
:10068000CF93DF938C010E943F05809131029091BE
:100690003202892B31F486E392E090933202809308
:1006A00031022091330230913402C801820F931F2E
:1006B0008F3143E0940770F42817390770F4C09124
:1006C0003102D0913202C20FD31F90933402809333
:1006D000330205C0C0E0D0E002C0C0E0D0E0402F4F
:1006E000612F82E30E94FA090E941506CE01DF9174
:1006F000CF911F910F9108950895E0917705F091A2
:1007000078058081811107C08FEF9FEF9093590585
:10071000809358050895E0917705F091780505805C
:10072000F681E02D0680F781E02D82819381909300
:100730005905809358050895CBE8D5E0888182302B
:10074000E8F30E946502FACFFF920F931F93CF93B5
:10075000DF93EC01F62E0091600510916105809108
:1007600094059091950502960E949701CF3F8FEFD7
:10077000D80769F4FF2059F06091940570919505B0
:100780006E5F7F4F83E695E00E9445012FC0C00F4A
:10079000D11FE0919405F0919505D383C283C017D2
:1007A000D10768F460919405709195058091750565
:1007B000909176056E5F7F4F0E94660117C0609131
:1007C00094057091950580917705909178056E5FFD
:1007D0007F4F0E9466018091580590915905C81776
:1007E000D90720F4D0935905C0935805DF91CF91D4
:1007F0001F910F91FF9008956F927F928F929F9219
:10080000AF92BF92CF92DF92EF92FF920F931F931E
:10081000CF93DF935C01EB018A013901CA010E9489
:100820003E036C01892B09F4CEC082E390E00E9464
:100830003E034C010097B1F0FC01D08EC78AA8019D
:1008400065EA70E0C6010E94770B01501109F401BE
:100850008789908D080F191F8881818F8881811168
:1008600005C014C0C6010E947C03ADC0D4015A96D5
:10087000FE0131969E01205F3F4FEF0181918D93E4
:100880008881882319F0E217F307B9F7F40110A65D
:10089000168A13A614A6E4012296CE010E944101F5
:1008A000C4010C960E944101F4019186808681E08A
:1008B00090E095878487938A828A15A616A617A644
:1008C00010AA11AAA301B501C8010E94BE01F4013A
:1008D00091838083E114F10419F0F7019182808201
:1008E0000FB6F8940F92809162058F5F8093620536
:1008F0008091940590919505892B49F490929505E6
:100900008092940580916205813091F45EC080915F
:100910005E0581110DC0E0919405F09195059689D1
:10092000F4018689891720F09092950580929405AC
:1009300080915A058F5F80935A05F40181A7B40115
:10094000675E7F4F85E00E946208F40182A7682FEE
:1009500083E20E94BC09F40162A58BE00E94BC09FD
:10096000F401868990915F05981710F480935F05D4
:1009700090E09C01220F331F220F331F220F331FE1
:10098000820F931FBE0185579A4F0E944501F401C3
:1009900062A58CE00E94BC090F900FBE80915E059D
:1009A000882369F0E0919405F09195059689F4010A
:1009B0008689981730F40E94650281E027C081E0A3
:1009C00025C081E023C08FEF21C08BE895E00E9415
:1009D000330182E895E00E94330189E795E00E94A7
:1009E00033018CE695E00E94330183E695E00E9496
:1009F000330182E895E0909378058093770589E745
:100A000095E0909376058093750592CFDF91CF9115
:100A10001F910F91FF90EF90DF90CF90BF90AF901C
:100A20009F908F907F906F900895EF92FF920F9319
:100A30000F2EF6E5EF2EF5E0FF2EF02D00E020E082
:100A400030E045E550E06DE071E08CE993E00E9414
:100A5000FC03813081F4F8948FEF9FEF9093590558
:100A60008093580581E080935E0510926105109295
:100A700060050E942A020F91FF90EF9008958091E7
:100A800055058F5F8093550508950FB6F8940F9222
:100A900080916005909161050F900FBE0895CF92EF
:100AA000DF92EF92FF920F931F93CF93DF938CE22D
:100AB0000E948509809155058111A1C0E0906005D3
:100AC000F09061058FEFE81AF80AF0926105E09264
:100AD0006005E114F104B9F48091770590917805EF
:100AE0002091750530917605309378052093770530
:100AF000909376058093750580915B058F5F809359
:100B00005B050E947D038091580590915905E81678
:100B1000F90610F4D12C5BC0D12CCC24C394E09105
:100B20007705F09178059081911107C08FEF9FEFC5
:100B300090935905809358054AC0E0917705F0914C
:100B400078050580F681E02DC681D7812A813B8119
:100B5000E216F30628F4309359052093580537C060
:100B60008E010E5F1F4FC8010E9497018C899D89DD
:100B7000892B21F0CE010C960E9497016AA58BE08B
:100B80000E94BC092E8980915F05821710F4209382
:100B90005F0530E0C901880F991F880F991F880FE2
:100BA000991F820F931FB80185579A4F0E944501E4
:100BB0006AA58CE00E94BC09E0919405F09195052E
:100BC0009E898689981708F4AACFDC2CA8CFE091DB
:100BD0009405F0919505868990E0FC01EE0FFF1FCA
:100BE000EE0FFF1FEE0FFF1F8E0F9F1FFC01E5573B
:100BF000FA4F8081823048F0DD24D39406C0809182
:100C00005D058F5F80935D05D12C80915C05882305
:100C100011F0DD24D3948D2DDF91CF911F910F9191
:100C2000FF90EF90DF90CF900895DF92EF92FF92C8
:100C30000F931F93CF93DF930FB6F8940F92809189
:100C4000550581508093550580915505811167C0E8
:100C50008091620581113BC065C0D7011596ED9169
:100C6000FC911697C681D781CE010C960E94970100
:100C70008E010E5F1F4FC8010E9497016AA58BE08D
:100C80000E94BC092E8980915F05821710F4209381
:100C90005F0530E0C901880F991F880F991F880FE1
:100CA000991F820F931FB80185579A4F0E944501E3
:100CB0006AA58CE00E94BC09E0919405F09195052D
:100CC0009E898689981768F0D0925C050AC0C0E0BA
:100CD000D0E00F2EFCE6EF2EF5E0FF2EF02DDD2408
:100CE000D394F70180818111B8CFCD2B11F00E94F0
:100CF0007D03C0915D05CC2351F0D1E00E944F05EA
:100D00008111D0935C05C150C9F710925D058091A7
:100D10005C05882331F00E94650281E003C080E019
:100D200001C080E00F900FBEDF91CF911F910F9116
:100D3000FF90EF90DF900895CF93DF93EC01892B24
:100D4000A1F00E943F05E0919405F09195052C2FAC
:100D50004D2F62A587E20E943F0A60E0CE010E940B
:100D6000A4030E941506811102C00E946502DF9152
:100D7000CF91089580915505882321F081E08093DB
:100D80005C05089510925C05E0919405F09195053D
:100D900062A586E00E94BC0920915F05822F90E049
:100DA000FC01EE0FFF1FEE0FFF1FEE0FFF1FE80FFE
:100DB000F91FE557FA4F3081311111C02150822FB0
:100DC00090E0FC01EE0FFF1FEE0FFF1FEE0FFF1F65
:100DD000E80FF91FE557FA4F3081332379F3AC015F
:100DE000440F551F440F551F440F551F480F591FDF
:100DF000DA01A557BA4F1196ED91FC911297028036
:100E0000F381E02D1296FC93EE93119742575A4FBF
:100E1000E417F50729F442815381FD015283418390
:100E2000FC01EE0FFF1FEE0FFF1FEE0FFF1F8E0FD7
:100E30009F1FFC01E557FA4F0180F281E02D86816A
:100E40009781909395058093940520935F05E09199
:100E50009405F091950562A582E00E94BC09089571
:100E6000DF92EF92FF920F931F93CF93DF937C015A
:100E7000D62E442361F1423009F05AC0CBEED6E0C1
:100E8000E881F981CF0101966C817D810E945A0B26
:100E90008C018A819B810817190709F44BC0CD2D5D
:100EA000D0E0AE01B701CF018F50994F0E946E0B79
:100EB000ABEEB6E0ED91FC911197EE0FFF1FE551FF
:100EC000F94FD68BC58B0D931C9380E036C0EEE1B5
:100ED000F7E020813181C9010196648175810E940A
:100EE0005A0B8C01828193810817190729F1CD2DA6
:100EF000D0E02F5F3F4FC901880F991F280F391F7E
:100F0000C901880F991FAE01B701825E984F0E94F8
:100F10006E0BAEE1B7E0ED91FC911197EE0FFF1F64
:100F2000EC5DF84FD183C0830D931C9380E005C026
:100F300081E003C081E001C081E0DF91CF911F918A
:100F40000F91FF90EF90DF9008950F931F93CF9331
:100F5000DF938A01EBEEF6E02281338140815181FB
:100F60004217530709F447C0EF01220F331FF9015D
:100F7000E551F94F45895689FB01408355276A8120
:100F80007B816F50794F0E946E0B8A819B81019605
:100F90006C817D810E945A0B9B838A8382E0F801D9
:100FA000808380E032C0CEE1D7E0220F331FF90109
:100FB000EC5DF84F40815181FB01408355272A8128
:100FC0003B812F5F3F4FB901660F771F620F731F81
:100FD000660F771F625E784F0E946E0B8A819B813D
:100FE00001966C817D810E945A0B9B838A83F80154
:100FF000108280E00AC0EEE1F7E022813381408177
:1010000051814217530779F681E0DF91CF911F910B
:101010000F910895EBEEF6E0118210821382128296
:101020008FE090E0958384830895EEE1F7E01182EC
:101030001082138212821582148208950E940A0877
:101040000E9415080895EF92FF920F931F930E943C
:101050001E080E944B084DE050E06FEF70E088E9F9
:1010600095E00E94770B0F2EF6E9EF2EF5E0FF2EAC
:10107000F02D01E010E020E030E045E550E062E1D5
:1010800071E08BE89AE00E94FC0380E01F910F91D1
:10109000FF90EF900895CF93DF93A4E2B7E0E8EAE2
:1010A000F5E080E021E097E92D93EF012197888317
:1010B0002197988310828F5FF6968630A9F7DF918B
:1010C000CF910895CF92DF92EF92FF920F931F93EB
:1010D000CF93DF93FB0101900020E9F731977F0167
:1010E000E61AF70A90E0FC01EC5DF84F40814F3FB3
:1010F00041F0FC01EC5DF84F21E0240F208350E02B
:1011000002C040E050E08A011127980121503109C6
:10111000D901AA0FBB1FF901EE0FFF1FEE0FFF1F32
:10112000EE0FFF1FEA0FFB1F56E3589FD001599F98
:10113000B00D1124EA0FFB1FEB55FA4F448348E032
:10114000E416F10420F06894EE24E3F8F12CE901B0
:10115000CC0FDD1F220F331F220F331F220F331F2F
:10116000C20FD31F26E3289F6001299FD00C1124B2
:10117000CC0DDD1DA701CE0185559A4F0E946E0B47
:10118000CB55DA4FFE01EE0DFF1D1682ED82F60102
:10119000EB55FA4F83818F5F8383C801DF91CF9135
:1011A0001F910F91FF90EF90DF90CF9008952F92B5
:1011B0003F924F925F926F927F928F929F92AF92E7
:1011C000BF92CF92DF92EF92FF920F931F93CF9334
:1011D000DF933C010F2EFBEAAF2EF5E0BF2EF02D82
:1011E0000F2EFFEE4F2EF6E05F2EF02D312C8DEFFF
:1011F00090E00E94E6008EEF90E00E94E6008FEF04
:1012000090E00E94E600F301808191E0980F9083C6
:10121000F5013697808390E00E94E600F50135974E
:10122000808190E00E94E600F5013497808190E093
:101230000E94E600F50133978080912CC4010E9442
:10124000E6001814190444F57501C32CD12CE701EC
:10125000F7013297808190E00E94E600F701319714
:101260002080022D10E0C8010E94E6001016110631
:1012700054F48701020D111D899190E00E94E6004F
:10128000C017D107C9F7FFEFCF1ADF0A8AE0E80ECF
:10129000F11C8C149D04D9F68DEF90E00E94E600BD
:1012A0008EEF90E00E94E6008FEF90E00E94E60053
:1012B000E6E3AE0EB11CA414B50409F098CFDF919B
:1012C000CF911F910F91FF90EF90DF90CF90BF9043
:1012D000AF909F908F907F906F905F904F903F90D6
:1012E0002F900895E82FE695E695E695F0E0E8560C
:1012F000FA4F208130E08770A90102C055954795CB
:101300008A95E2F7CA0181700895CF93C82F0E9491
:101310007209882379F18DEF90E00E94E6008EEF4C
:1013200090E00E94E6008FEF90E00E94E60080913E
:101330002A0791E0980F90932A0790E00E94E60018
:101340008C2F90E00E94E6000E944505672F782FC1
:10135000892F99270E94E6000E9445050E94E60019
:101360008091850090E00E94E6008091840090E0EA
:101370000E94E600CF910895CF93DF93C82FD62F18
:101380000E947209882399F18DEF90E00E94E60097
:101390008EEF90E00E94E6008FEF90E00E94E60062
:1013A00080912A0791E0980F90932A0790E00E947D
:1013B000E6008C2F90E00E94E6000E944505672F12
:1013C000782F892F99270E94E6000E9445050E94E8
:1013D000E6008091850090E00E94E6008091840004
:1013E00090E00E94E6008D2F90E00E94E600DF91E1
:1013F000CF9108951F93CF93DF93C82F162FD42F2B
:101400000E9472098823B9F18DEF90E00E94E600F6
:101410008EEF90E00E94E6008FEF90E00E94E600E1
:1014200080912A0791E0980F90932A0790E00E94FC
:10143000E6008C2F90E00E94E6000E944505672F91
:10144000782F892F99270E94E6000E9445050E9467
:10145000E6008091850090E00E94E6008091840083
:1014600090E00E94E600812F90E00E94E6008D2F20
:1014700090E00E94E600DF91CF911F9108950F93B5
:101480001F93CF93DF93C82F062F142FD22F0E94C4
:1014900072098823D9F18DEF90E00E94E6008EEF6B
:1014A00090E00E94E6008FEF90E00E94E6008091BD
:1014B0002A0791E0980F90932A0790E00E94E60097
:1014C0008C2F90E00E94E6000E944505672F782F40
:1014D000892F99270E94E6000E9445050E94E60098
:1014E0008091850090E00E94E6008091840090E069
:1014F0000E94E600802F90E00E94E600812F90E09D
:101500000E94E6008D2F90E00E94E600DF91CF91CF
:101510001F910F910895CF93DF93CDB7DEB76D97ED
:101520000FB6F894DEBF0FBECDBF1C86812C912C68
:10153000712C612CCE010D969B8F8A8F0F2EF8E9AE
:101540002F2EF5E03F2EF02D0F2EF5EAAF2EF5E011
:10155000BF2EF02D9A8D9C8FEB8DED8F6E01FAE1F1
:10156000CF0ED11CAE01455F5F4FBE01665F7F4F5E
:10157000CE0101960E94A507811197C08B8581300D
:1015800029F080F1823009F455C0ECCF8A810E94A5
:101590007209882339F38C8591E0980F9C878983A1
:1015A0008DEF90E00E94E6008EEF90E00E94E60052
:1015B0008FEF90E00E94E6008A85882399F2072D3C
:1015C000162DCE0101967C01F70181917F0190E0FB
:1015D0000E94E6000F5F1F4F8A8590E008171907E9
:1015E00098F3C0CF8C8591E0980F9C8789838DEF0D
:1015F00090E00E94E6008EEF90E00E94E6008FEF00
:1016000090E00E94E6008A85882309F4ABCF072D7D
:10161000162DCE0101967C01F70181917F0190E0AA
:101620000E94E6000F5F1F4F8A8590E00817190798
:1016300098F398CF992021F0F1E09F1631F192CFE5
:101640008981873939F0883909F08CCF21019924B3
:10165000939488CF8E01035F1F4F7101F101AC8D10
:10166000BD8D80818D931192EA15FB05D1F7CE01D6
:101670000C960E94D708F80181918F01F7018193A0
:101680007F010C151D05B9F76DCFFCE0F81508F4C6
:1016900069CF8981F20181932F018394FCE0F815D1
:1016A00008F060CF812C912C5DCF8AE090E00E9401
:1016B0009C0658CFAA1BBB1B51E107C0AA1FBB1F2A
:1016C000A617B70710F0A61BB70B881F991F5A95CE
:1016D000A9F780959095BC01CD010895FB01DC012F
:1016E00002C001900D9241505040D8F70895DC019E
:1016F00001C06D9341505040E0F70895F894FFCF3A
:10170000626C696E6B00626C696E6B320049444CAE
:0C1710004500736E6966665461736B00DF
:00000001FF
